{
  "transactions": [
    {
      "hash": "0x64e3d9d5d459b200e64501db96c92443733d90529f54c0ac44638bbcd1fc5a4f",
      "transactionType": "CREATE",
      "contractName": "BowLendingPool",
      "contractAddress": "0xa4a9adf4a24ab16d16c426c7f6ab0f54ee8cc11d",
      "function": null,
      "arguments": null,
      "transaction": {
        "from": "0x3a0dd90212838f32a953acd4b32596b62859324a",
        "gas": "0xb406f",
        "value": "0x0",
        "input": "0x60808060405234610027575f80546001600160a01b031916331790556108e2908161002c8239f35b5f80fdfe604060808152600480361015610013575f80fd5b5f3560e01c9081634b3a9cea1461067d5781634bd21445146106215781635b6333eb146105a357816361e5dee8146104a15781638da5cb5b1461047a578163d66bd52414610413578163f2b9fdb814610295578163f3fef3a3146100ec575063f7888aec14610080575f80fd5b346100e857806003193601126100e8576020906100e161009e610701565b6100a6610717565b9060018060a01b038091165f5260028552835f20911690815f5284526100cd835f2061075c565b905f52600184526001835f200154906107ce565b9051908152f35b5f80fd5b82346100e857806003193601126100e857610105610701565b906024359160018060a01b0316805f52602093600185526003835f2091845161012d8161072d565b60ff84541615908115815260606001860154958a83019687526002810154898401526001600160401b0395869101541691015261028757335f5260028752845f20845f528752610189855f2093516101848561075c565b6107ce565b908115610279575f1987148015610270575b610267575b86156102595750856101b19161078d565b8255600182019042166001600160401b0319825416179055815f52600185526002835f20016101ea81548087115f14610252578061078d565b905561021c835163a9059cbb60e01b87820152336024820152856044820152604481526102168161072d565b83610847565b54825190848252858201527f91fb9d98b786c57d74c099ccd2beca1739e9f6a81fb49001ca465c4b7591bbe2833392a351908152f35b869061078d565b85516365e52d5160e11b8152fd5b955080956101a0565b5081871161019b565b8551631e9acf1760e31b8152fd5b845163d57588cf60e01b8152fd5b82346100e857806003193601126100e8576102ae610701565b6024359081156104045760018060a01b031691825f52602060018152815f20600383516102da8161072d565b60ff83541615908115815260606001850154948683019586526002810154888401526001600160401b039485910154169101526103f45783516323b872dd60e01b84820152336024820152306044820152606480820187905281529660a0880190828211898310176103e157507f2b650c94fbe31b46ae7946bf007a115a23c6e4532d75ad02526181930433459895969761037791865288610847565b335f5260028352835f20875f5283526103a08661039b865f2094516101848661075c565b6107ae565b8255600182019042166001600160401b0319825416179055855f52600182526002835f20016103d08682546107ae565b9055549082519485528401523392a3005b604190634e487b7160e01b5f525260245ffd5b835163d57588cf60e01b81528790fd5b5050516365e52d5160e11b8152fd5b82346100e85760203660031901126100e8576080906001600160a01b03610438610701565b165f526001602052805f209060ff825416916001810154916001600160401b036003600284015493015416928151941515855260208501528301526060820152f35b82346100e8575f3660031901126100e8575f5490516001600160a01b039091168152602090f35b82346100e85760603660031901126100e8576104bb610701565b906024358015158091036100e8575f54604435936001600160a01b039182163303610593577fbf9a66379ef060580417f1cc697ec87e19889f7e3402b53f59705d85055c0f089495501693845f526001602052825f206003806002830154926001600160401b03928391015416928651906105358261072d565b86825260208201868152888301918252606083019586528a5f526001602052885f209251151560ff80198554169116178355516001830155516002820155019151166001600160401b031982541617905582519182526020820152a2005b8351635fc483c560e01b81528690fd5b82346100e85760203660031901126100e8576060906001600160a01b036105c8610701565b165f526001602052805f208151916105df8361072d565b60ff825416151592838152600183015490816020820152856001600160401b036003600287015496878786015201541691015281519384526020840152820152f35b82346100e857806003193601126100e85761063a610701565b610642610717565b9060018060a01b038091165f526002602052825f2091165f52602052805f206001600160401b03600182549201541682519182526020820152f35b82346100e857806003193601126100e857602090610699610701565b6106a1610717565b9060018060a01b038091165f5260028452825f20911690815f5283526106c8825f2061075c565b905f52600183526106df6001835f200154826107ce565b9051808211156106f8576100e19161078d565b51908152f35b50505f906106f2565b600435906001600160a01b03821682036100e857565b602435906001600160a01b03821682036100e857565b608081019081106001600160401b0382111761074857604052565b634e487b7160e01b5f52604160045260245ffd5b90604051604081016001600160401b0382821081831117610748576020916040526001839580548552015416910152565b9190820391821161079a57565b634e487b7160e01b5f52601160045260245ffd5b9190820180921161079a57565b8181029291811591840414171561079a57565b805180158015610832575b801561082a575b610824575064496cebb8006108196108219361081461080c6001600160401b036020870151164261078d565b9185516107bb565b6107bb565b0490516107ae565b90565b91505090565b5082156107e0565b506001600160401b03602083015116156107d9565b905f602091828151910182855af1156108a1575f513d61089857506001600160a01b0381163b155b6108765750565b604051635274afe760e01b81526001600160a01b039091166004820152602490fd5b6001141561086f565b6040513d5f823e3d90fdfea26469706673582212203d8b141a37eb4eef9e4d9d3cfb12e79926fec466561e5c099fbf04827d2318b164736f6c63430008180033",
        "nonce": "0x11",
        "chainId": "0x4cef52"
      },
      "additionalContracts": [],
      "isFixedGasLimit": false
    },
    {
      "hash": "0xd40cefc58dc73d492f29945a6e5acf5bcfc06c990a8577ed4cdcd466b518628c",
      "transactionType": "CALL",
      "contractName": "BowLendingPool",
      "contractAddress": "0xa4a9adf4a24ab16d16c426c7f6ab0f54ee8cc11d",
      "function": "setReserve(address,bool,uint256)",
      "arguments": [
        "0x3600000000000000000000000000000000000000",
        "true",
        "330"
      ],
      "transaction": {
        "from": "0x3a0dd90212838f32a953acd4b32596b62859324a",
        "to": "0xa4a9adf4a24ab16d16c426c7f6ab0f54ee8cc11d",
        "gas": "0x1939f",
        "value": "0x0",
        "input": "0x61e5dee800000000000000000000000036000000000000000000000000000000000000000000000000000000000000000000000000000000000000000000000000000001000000000000000000000000000000000000000000000000000000000000014a",
        "nonce": "0x12",
        "chainId": "0x4cef52"
      },
      "additionalContracts": [],
      "isFixedGasLimit": false
    },
    {
      "hash": "0x34ae08bd5f657b64db955145326c298446aeca5e51641ca6c80cd469567f7857",
      "transactionType": "CALL",
      "contractName": "BowLendingPool",
      "contractAddress": "0xa4a9adf4a24ab16d16c426c7f6ab0f54ee8cc11d",
      "function": "setReserve(address,bool,uint256)",
      "arguments": [
        "0xe9185F0c5F296Ed1797AaE4238D26CCaBEadb86C",
        "true",
        "0"
      ],
      "transaction": {
        "from": "0x3a0dd90212838f32a953acd4b32596b62859324a",
        "to": "0xa4a9adf4a24ab16d16c426c7f6ab0f54ee8cc11d",
        "gas": "0x1295a",
        "value": "0x0",
        "input": "0x61e5dee8000000000000000000000000e9185f0c5f296ed1797aae4238d26ccabeadb86c00000000000000000000000000000000000000000000000000000000000000010000000000000000000000000000000000000000000000000000000000000000",
        "nonce": "0x13",
        "chainId": "0x4cef52"
      },
      "additionalContracts": [],
      "isFixedGasLimit": false
    },
    {
      "hash": "0xa06e3205ffb4c7c1eef45351cfc6fcfb8acda085b6a26c1256f6f0d44deb8ddf",
      "transactionType": "CALL",
      "contractName": "BowLendingPool",
      "contractAddress": "0xa4a9adf4a24ab16d16c426c7f6ab0f54ee8cc11d",
      "function": "setReserve(address,bool,uint256)",
      "arguments": [
        "0x89B50855Aa3bE2F677cD6303Cec089B5F319D72a",
        "true",
        "191"
      ],
      "transaction": {
        "from": "0x3a0dd90212838f32a953acd4b32596b62859324a",
        "to": "0xa4a9adf4a24ab16d16c426c7f6ab0f54ee8cc11d",
        "gas": "0x194ca",
        "value": "0x0",
        "input": "0x61e5dee800000000000000000000000089b50855aa3be2f677cd6303cec089b5f319d72a000000000000000000000000000000000000000000000000000000000000000100000000000000000000000000000000000000000000000000000000000000bf",
        "nonce": "0x14",
        "chainId": "0x4cef52"
      },
      "additionalContracts": [],
      "isFixedGasLimit": false
    }
  ],
  "receipts": [
    {
      "status": "0x1",
      "cumulativeGasUsed": "0x4307c9",
      "logs": [],
      "logsBloom": "0x00000000000000000000000000000000000000000000000000000000000000000000000000000000000000000000000000000000000000000000000000000000000000000000000000000000000000000000000000000000000000000000000000000000000000000000000000000000000000000000000000000000000000000000000000000000000000000000000000000000000000000000000000000000000000000000000000000000000000000000000000000000000000000000000000000000000000000000000000000000000000000000000000000000000000000000000000000000000000000000000000000000000000000000000000000000",
      "type": "0x0",
      "transactionHash": "0xd40cefc58dc73d492f29945a6e5acf5bcfc06c990a8577ed4cdcd466b518628c",
      "transactionIndex": "0x18",
      "blockHash": "0xf7f684d05e9d182864ff1e0596764b5689670fe409306f0255b2be9a5c239c07",
      "blockNumber": "0x28dbfae",
      "gasUsed": "0x8a7b8",
      "effectiveGasPrice": "0x4a82a1780",
      "from": "0x3a0dd90212838f32a953acd4b32596b62859324a",
      "to": null,
      "contractAddress": "0xa4a9adf4a24ab16d16c426c7f6ab0f54ee8cc11d"
    },
    {
      "status": "0x1",
      "cumulativeGasUsed": "0x442c01",
      "logs": [
        {
          "address": "0xa4a9adf4a24ab16d16c426c7f6ab0f54ee8cc11d",
          "topics": [
            "0xbf9a66379ef060580417f1cc697ec87e19889f7e3402b53f59705d85055c0f08",
            "0x0000000000000000000000003600000000000000000000000000000000000000"
          ],
          "data": "0x0000000000000000000000000000000000000000000000000000000000000001000000000000000000000000000000000000000000000000000000000000014a",
          "blockHash": "0xf7f684d05e9d182864ff1e0596764b5689670fe409306f0255b2be9a5c239c07",
          "blockNumber": "0x28dbfae",
          "blockTimestamp": "0x6a0b0cc5",
          "transactionHash": "0xa06e3205ffb4c7c1eef45351cfc6fcfb8acda085b6a26c1256f6f0d44deb8ddf",
          "transactionIndex": "0x19",
          "logIndex": "0x66",
          "removed": false
        }
      ],
      "logsBloom": "0x00000000000000000000000000000000000000000001000000000000000000000000000000000000000000000000000000000000000000000000000040000000000000000000000000000000000000000000000000000000000000000001100000000000000000000000000000000000000000000000000000000040000000000000000000000000000000000000000000000000000000000000000000000000000000000000100000000000000000000000000000000000000000004000000000000000000000000000000000000000000200000100000000000000000000000000000000000000000000000000000000000000000000000000000000000000",
      "type": "0x0",
      "transactionHash": "0xa06e3205ffb4c7c1eef45351cfc6fcfb8acda085b6a26c1256f6f0d44deb8ddf",
      "transactionIndex": "0x19",
      "blockHash": "0xf7f684d05e9d182864ff1e0596764b5689670fe409306f0255b2be9a5c239c07",
      "blockNumber": "0x28dbfae",
      "gasUsed": "0x12438",
      "effectiveGasPrice": "0x4a82a1780",
      "from": "0x3a0dd90212838f32a953acd4b32596b62859324a",
      "to": "0xa4a9adf4a24ab16d16c426c7f6ab0f54ee8cc11d",
      "contractAddress": null
    },
    {
      "status": "0x1",
      "cumulativeGasUsed": "0x450349",
      "logs": [
        {
          "address": "0xa4a9adf4a24ab16d16c426c7f6ab0f54ee8cc11d",
          "topics": [
            "0xbf9a66379ef060580417f1cc697ec87e19889f7e3402b53f59705d85055c0f08",
            "0x000000000000000000000000e9185f0c5f296ed1797aae4238d26ccabeadb86c"
          ],
          "data": "0x00000000000000000000000000000000000000000000000000000000000000010000000000000000000000000000000000000000000000000000000000000000",
          "blockHash": "0xf7f684d05e9d182864ff1e0596764b5689670fe409306f0255b2be9a5c239c07",
          "blockNumber": "0x28dbfae",
          "blockTimestamp": "0x6a0b0cc5",
          "transactionHash": "0x64e3d9d5d459b200e64501db96c92443733d90529f54c0ac44638bbcd1fc5a4f",
          "transactionIndex": "0x1a",
          "logIndex": "0x67",
          "removed": false
        }
      ],
      "logsBloom": "0x00000000000000000000000000000000000000000000000000000000000000000000000000000000000000000000000000000000000000000000000040000000000000000000000000000000000000000000000000000000000000000000100000000000000000000000000000000000000000000000000000000040000000000000000000000000000000000000000000000000002000001000000000000000000000000000100000000000000000000000000000000100000000000000000000000000000000000000000000000000000200000100000000000000000000000000000000000000000000000000000000000000000000000000000000000000",
      "type": "0x0",
      "transactionHash": "0x64e3d9d5d459b200e64501db96c92443733d90529f54c0ac44638bbcd1fc5a4f",
      "transactionIndex": "0x1a",
      "blockHash": "0xf7f684d05e9d182864ff1e0596764b5689670fe409306f0255b2be9a5c239c07",
      "blockNumber": "0x28dbfae",
      "gasUsed": "0xd748",
      "effectiveGasPrice": "0x4a82a1780",
      "from": "0x3a0dd90212838f32a953acd4b32596b62859324a",
      "to": "0xa4a9adf4a24ab16d16c426c7f6ab0f54ee8cc11d",
      "contractAddress": null
    },
    {
      "status": "0x1",
      "cumulativeGasUsed": "0x462859",
      "logs": [
        {
          "address": "0xa4a9adf4a24ab16d16c426c7f6ab0f54ee8cc11d",
          "topics": [
            "0xbf9a66379ef060580417f1cc697ec87e19889f7e3402b53f59705d85055c0f08",
            "0x00000000000000000000000089b50855aa3be2f677cd6303cec089b5f319d72a"
          ],
          "data": "0x000000000000000000000000000000000000000000000000000000000000000100000000000000000000000000000000000000000000000000000000000000bf",
          "blockHash": "0xf7f684d05e9d182864ff1e0596764b5689670fe409306f0255b2be9a5c239c07",
          "blockNumber": "0x28dbfae",
          "blockTimestamp": "0x6a0b0cc5",
          "transactionHash": "0x34ae08bd5f657b64db955145326c298446aeca5e51641ca6c80cd469567f7857",
          "transactionIndex": "0x1b",
          "logIndex": "0x68",
          "removed": false
        }
      ],
      "logsBloom": "0x00000000000000000000000000000000000000000000000000000000000000000000000000000000000000000000000000000000000000000000000040000000000000000000000000000000000000000000000000000000000000000000100000000000000000000000000000000000000000000000000000000040000000000080000000000000000000000000000000000000080000000000000000000000000000000000100000000000000004000000000000000000000000000000000000000000000000000000000000000000000200000100000000000000000000000000000000000000000000000000000000000000000000000000000000000000",
      "type": "0x0",
      "transactionHash": "0x34ae08bd5f657b64db955145326c298446aeca5e51641ca6c80cd469567f7857",
      "transactionIndex": "0x1b",
      "blockHash": "0xf7f684d05e9d182864ff1e0596764b5689670fe409306f0255b2be9a5c239c07",
      "blockNumber": "0x28dbfae",
      "gasUsed": "0x12510",
      "effectiveGasPrice": "0x4a82a1780",
      "from": "0x3a0dd90212838f32a953acd4b32596b62859324a",
      "to": "0xa4a9adf4a24ab16d16c426c7f6ab0f54ee8cc11d",
      "contractAddress": null
    }
  ],
  "libraries": [],
  "pending": [],
  "returns": {},
  "timestamp": 1779109069214,
  "chain": 5042002,
  "commit": "97c4641"
}